:060000000A128A110C280F
:10000800FE00030EF6000A08F7000A128A11F72804
:100018000A128A110F28F801F901FA01FB01FC0103
:10002800FD0183120313A001A101A201A301A401F0
:10003800A50183010A128A11EE29413083120313A4
:100048009F00831603139F018316031788018901F4
:10005800C328831603170814831603130514F628F8
:100068001F08C33904389F008316031788148316A2
:1000780003138514F6281F08C33908389F00831610
:1000880003170815831603130515F6281F08C33927
:100098000C389F00831603178815831603138515DC
:1000A800F6281F08C33910389F008316031708164F
:1000B800831603138516F6281F08C33914389F00C2
:1000C800831603178816831603130914F6281F08C6
:1000D800C33918389F0083160317081783160313AC
:1000E8008914F6281F08C3391C389F008316031784
:1000F8008817831603130915F6281F08C3392038F3
:100108009F00831603170914831603130615F62890
:100118001F08C33924389F008316031789148316D0
:1001280003138615F6281F08C33928389F0083163D
:1001380003170915831603138614F6281F08C339F5
:100148002C389F0083160317891583160313061688
:10015800F6281F08C33930389F008316031709167D
:10016800831603130614F6281F08C33934389F0072
:10017800831603178916831603138616F628831227
:1001880003132708003A0319CA28F6282608003A54
:1001980003192D28013A03193428033A03193F2873
:1001A800013A03194A28073A03195528013A03194D
:1001B8006028033A03196B28013A031976280F3A85
:1001C80003198128013A03198C28033A031997283F
:1001D800013A0319A228073A0319AD28013A03196D
:1001E800B828F6280800831203130C1FFC28FD28E2
:1001F80006290A128A114D220A128A117108FB0077
:100208007008FA000B1C09290A291D2983120313F7
:10021800061B0F29102915290130A4000030A5005C
:100228001D29861B182919291D290130A200003013
:10023800A300831203138C1D2229232947290A129C
:100248008A1157220A128A11F400F5017408F8007D
:100258007508F90078087904031D332934293B29E6
:100268007A080A128A1167220A128A114729780322
:100278007904031D4029412947297C080A128A115B
:1002880067220A128A110B10831203130C138C11A4
:1002980077088A00760E8300FE0E7E0E0900831210
:1002A8000313A800872983160313061415141614BC
:1002B800A92983160313861495149614A92983165D
:1002C8000313061515151615A92983160313861584
:1002D80095159615A92983160313061615161616CD
:1002E800A92983160313861695169616A929831627
:1002F8000313061715171617A9298316031386174C
:1003080095179617A9292808A600A7012708003AD3
:1003180003198F29A9292608003A03195729013AF0
:1003280003195D29033A03196329013A0319692955
:10033800073A03196F29013A03197529033A031972
:100348007B29013A03198129A929080071308316EC
:1003580003138F00C8308B0050308C0083120313B6
:100368008C010030A600A7000A128A1121200A1267
:100378008A1183120313A601A701A80124300A12C7
:100388008A112F220A128A118316031385168101F6
:10039800860106300A128A1153210A128A1107307F
:1003A8000A128A1153210A128A118316031307119C
:1003B80088018901831203138501860107158801C5
:1003C8008901A401A501A201A301FC01FD01F80115
:1003D800F90108000A128A11AA210A128A11831245
:1003E80003139F18F829F929062A0D3083120313DD
:1003F800AB00FB30AA00AA0BFF29AB0BFF29831225
:1004080003139F14061F092A0A2A192A24032504FC
:10041800031D0F2A102A192A0130FC070318FD0AA8
:100428000030FD07A401A501F329861F1C2A1D2AF7
:10043800F32922032304031D222A232AF329FF3048
:10044800FC070318FD0AFF30FD07A201A301F329E9
:100458000A128A110C2883120313A90083160313A6
:10046800871283120313291D3A2A3B2A412A280896
:100478008316031394008715472A26082804831631
:100488000313940087118312031329082704940087
:100498000800831203131E08F200F3017208F0002B
:1004A8007308F10008000A128A1160220A128A11E0
:1004B800831203131308080083160313141C652AF8
:1004C800662A602A0800F00070088312031393005C
:0204D80008001A
:08400000FF3FFF3FFF3FFF3FC0
:04400E00D620FF3F7A
:00000001FF
