:100000000A128A11F32FFF1B0D2883137F18831701
:100010000008840A0319FF0A080000308A00040857
:10002000840A82070034013400340A340034643412
:100030000034E83403341034273450344F3454340B
:100040003134003450344F34543432340034433477
:0E0050004F344E3454340034253464340034BC
:10068600F0007008831203139300080001300A1269
:100696008A1194230A128A11080083160313141C64
:1006A600552B562B502B080064008001840A040643
:1006B600031900340406582B0A128A1150230A1211
:1006C6008A118312031313080800F200831203131E
:1006D600081772080A128A1129240A128A1183122B
:1006E600031388171A30F100F10B772B00008312E1
:1006F600031388130800F300831603138712731D70
:10070600852B862B8A2B7208940087158E2B7008F2
:100716007204940087117308710483120313940002
:100726000800F30083120313081373080A128A11D0
:1007360029240A128A118312031388170B30F20038
:100746006230F100F10BA52BF20BA52B00008312F2
:10075600031388130800F5007503031DB32BB42B90
:10076600BE2B74087F3EF60076080A128A1194237F
:100776000A128A11CD2B02307506031DC32BC42B1A
:10078600CD2B7408BF3EF60076080A128A11942310
:100796000A128A1108007130831603138F00F001C4
:1007A600F101F20120300A128A117E230A128A11FF
:1007B60083160317880189018316031385018601B1
:1007C6000711871088018312031385018601071517
:1007D6008714880189010800780879040319F42B25
:1007E600F52B242CFD01FD0A032C01300310F80D16
:1007F600F90DFF3E031DF92B0130FC007C08FD07B7
:10080600F91F062C072CF82B79087B02031D0D2CEB
:1008160078087A02031C102C112C172C7808FA027F
:100826007908031CFB03FB0201300310F90CF80CDA
:10083600FF3E031D182C0130FD02031D232C242C22
:10084600072C7B08F9007A08F8000800F000701CF5
:100856002D2C2E2C322C831203130614352C8312C6
:1008660003130610F01C382C392C3B2C86143C2C18
:100876008610701D3F2C402C422C0615432C061169
:10088600F01D462C472C492C86154A2C8611701EC5
:100896004D2C4E2C502C0616512C0612F01E542CA4
:1008A600552C572C8616582C8612701F5B2C5C2CE8
:1008B6005E2C06175F2C0613F01F622C632C652C2A
:1008C6008617662C86130800F801F9018C2C780827
:1008D6007307F6007408F5000318F50AF81F742C60
:1008E600F5037508F700770883120313FF007608EF
:1008F60084000A128A1103200A128A110A128A1126
:1009060068230A128A110130F8070318F90A003021
:10091600F90778087307F6007408F5000318F50A56
:10092600F81F962CF5037508F70077088312031352
:10093600FF00760884000A128A1103200A128A111F
:10094600003A031DA72CA82C6A2C0800F501F60115
:10095600700871040319B02CB12CE82CF701F70AC2
:10096600BF2C01300310F00DF10DFF3E031DB52C19
:100976000130F4007408F707F11FC22CC32CB42C05
:1009860001300310F50DF60DFF3E031DC42C710852
:100996007302031DD02C70087202031CD32CD42CB6
:1009A600DB2C7008F2027108031CF303F3027514C2
:1009B60001300310F10CF00CFF3E031DDC2C01305E
:1009C600F702031DE72CE82CC32C7608F100750806
:1009D600F000080000300A128A1129240A128A112E
:1009E6003430F500F130F400F40BF72CF50BF72C4E
:1009F600FC2C03300A128A1194230A128A110D3034
:100A0600F500FB30F400F40B062DF50B062D0B2D2F
:100A160003300A128A1194230A128A111D30F50036
:100A26009130F400F40B152DF50B152D03300A1239
:100A36008A1194230A128A1138300A128A119423D1
:100A46000A128A110C300A128A1194230A128A1188
:100A560001300A128A1194230A128A1106300A12E8
:100A66008A1194230A128A11080083120313BD0007
:100A76003330B800FD2D25303E060319432D442D95
:100A86004E2D3D0884003E08831380000130B500DA
:100A96003508BD07FD2DB9010130B207FF30320719
:100AA60084000A128A110D200A128A11BE00B500AE
:100AB600B6013608003A0319612DFD2D3508003AB6
:100AC60003190D2E643A03196C2D0D3A03196C2D7A
:100AD600FD2D3808840083130008BB00840A000833
:100AE600BC000230B5003508B807BC1F7B2D7C2D35
:100AF600852D0330B5003508B904BB09BC09BB0A0E
:100B06000319BC0ABE01BE0A3E08B5003507013E00
:100B160084000A128A110D200A128A11B6000A12DE
:100B26008A110D200A128A11B70037083C02031DEC
:100B36009E2D36083B020318A12DA22DA32DAD2D07
:100B46000130B5003508BE0705303E06031DAC2D45
:100B5600AD2D872D390803390319B22DB32DBC2DC0
:100B66003D0884002D30831380000130B500350820
:100B7600BD073E08BA00F42D0A30F8000030F9002F
:100B86003A08B5003507013E84000A128A110D2085
:100B96000A128A11F0000A128A110D200A128A110D
:100BA600F1003C08F3003B08F2000A128A11A9245E
:100BB6000A128A117108FB007008FA000A128A11DB
:100BC600EF230A128A117808303E83120313BE00FF
:100BD6003D0884003E08831380000130B5003508C7
:100BE600BD07FF30B5003508BA073A0A031DFC2DCC
:100BF600FD2DBF2D0130B207FF30320784000A12E7
:100C06008A110D200A128A11BE003E08031D0C2E01
:100C16000D2E3E2D3D0884008313800108000A1224
:100C26008A11CE230A128A110A128A11ED240A1297
:100C36008A110A128A1149230A128A11F401F40A46
:100C460001300A128A11AE230A128A110B30F30000
:100C56008030F4000A128A1167240A128A110630BB
:100C6600F40001300A128A11AE230A128A111030DA
:100C7600F3008030F4000A128A1167240A128A11DE
:100C86000B30F40001300A128A11AE230A128A11BF
:100C96001530F3008030F4000A128A1167240A1214
:100CA6008A11831203130711033083120313C00042
:100CB6009730BF00BF0B5D2EC00B5D2E00300A12B1
:100CC6008A1143230A128A110A128A115F230A1211
:100CD6008A1183120313BF00C0013F08A400400815
:100CE600A500033083120313C0009730BF00BF0B6B
:100CF6007A2EC00B7A2E8312031307150330831244
:100D06000313C1008A30C0005530BF00BF0B892EC7
:100D1600C00B892EC10B892E831203138710033053
:100D260083120313C0009730BF00BF0B982EC00B71
:100D3600982E01300A128A1143230A128A110A12C6
:100D46008A115F230A128A1183120313BF00C0019E
:100D56003F08A2004008A300033083120313C0001B
:100D66009730BF00BF0BB52EC00BB52E83120313F1
:100D76008714033083120313C1008A30C000553034
:100D8600BF00BF0BC42EC00BC42EC10BC42E8312D2
:100D960003138710033083120313C0009730BF007C
:100DA600BF0BD32EC00BD32E00300A128A11432359
:100DB6000A128A110A128A115F230A128A118312F1
:100DC6000313BF00C0013F08A0004008A100033084
:100DD60083120313C0009730BF00BF0BF02EC00B69
:100DE600F02E831203138714033083120313C100FA
:100DF6008A30C0005530BF00BF0BFF2EC00BFF2E40
:100E0600C10BFF2EF401F40A02300A128A11AE2336
:100E16000A128A111A3083120313B2002508B4008D
:100E26002408B3002E300A128A1138250A128A11B4
:100E3600831203132508803AFF0080307F02031DCA
:100E4600262F0A3024020318292F2A2F332F831224
:100E560003132E08B0003030AF003030AE004A2FFA
:100E6600831203132508803AFF0080307F02031D9A
:100E76003E2F643024020318412F422F4A2F83123B
:100E860003132F08B0002E08AF003030AE002E300E
:100E9600F3000030F4000A128A1167240A128A113C
:100EA6000630F40002300A128A11AE230A128A11A1
:100EB6001A3083120313B2002308B4002208B300C9
:100EC6002A300A128A1138250A128A11831203134C
:100ED6002308803AFF0080307F02031D742F0A30FA
:100EE60022020318772F782F812F831203132A08E3
:100EF600AC003030AB003030AA00982F83120313B9
:100F06002308803AFF0080307F02031D8C2F643057
:100F1600220203188F2F902F982F831203132B086A
:100F2600AC002A08AB003030AA002A30F3000030AB
:100F3600F4000A128A1167240A128A110B30F4008F
:100F460002300A128A11AE230A128A111A3083124B
:100F56000313B2002108B4002008B30026300A1299
:100F66008A1138250A128A11831203132108803A3E
:100F7600FF0080307F02031DC22F0A3020020318B3
:100F8600C52FC62FCF2F831203132608A800303093
:100F9600A7003030A600E62F831203132108803AFB
:100FA600FF0080307F02031DDA2F64302002031811
:100FB600DD2FDE2FE62F831203132708A80026084D
:100FC600A7003030A6002630F3000030F4000A12E5
:100FD6008A1167240A128A11542E0A128A110028CD
:100FE60083132030840032300A128A1157230A12E2
:0A0FF6008A1183010A128A11122EDB
:08400000FF3FFF3FFF3FFF3FC0
:04400E00D620FF3F7A
:00000001FF
