:060000000A128A110C280F
:10000800FE00030EF4000A08F5000A128A111D29E1
:100018000A128A110F28F601F70183010A128A11C0
:1000280061294130831203139F00831603139F0134
:100038008316031788018901B72883160317081444
:10004800831603130514EA281F08C33904389F00D0
:10005800831603178814831603138514EA281F08C8
:10006800C33908389F00831603170815831603132E
:100078000515EA281F08C3390C389F008316031793
:100088008815831603138515EA281F08C339103805
:100098009F00831603170816831603138516EA288C
:1000A8001F08C33914389F00831603178816831650
:1000B80003130914EA281F08C33918389F00831648
:1000C80003170817831603138914EA281F08C3396E
:1000D8001C389F0083160317881783160313091506
:1000E800EA281F08C33920389F008316031709140C
:1000F800831603130615EA281F08C33924389F00FE
:10010800831603178914831603138615EA281F0814
:10011800C33928389F00831603170915831603135C
:100128008614EA281F08C3392C389F008316031742
:100138008915831603130616EA281F08C3393038B1
:100148009F00831603170916831603130614EA285B
:100158001F08C33934389F0083160317891683167E
:1001680003138616EA28831203132108003A031999
:10017800BE28EA282008003A03192128013A031961
:100188002828033A03193328013A03193E28073A65
:1001980003194928013A03195428033A03195F2817
:1001A800013A03196A280F3A03197528013A031905
:1001B8008028033A03198B28013A03199628073A2D
:1001C8000319A128013A0319AC28EA28080071305C
:1001D800831603138F00C0308B0050308C008312BD
:1001E80003138C0183160313810100308312031358
:1001F800A000A1000A128A1115200A128A1183127E
:100208000313A001A101A20124300A128A1143217B
:100218000A128A11831603138516860107118801AD
:100228008901831203138501860107158801890155
:100238000800831203130C1F222923292C290A12D0
:100248008A117C210A128A117108F7007008F600D9
:10025800831203138C1D31293229382976080A1292
:100268008A1186210A128A11831203130C138C1126
:1002780075088A00740E8300FE0E7E0E0900831234
:100288000313A30083160313871283120313231D7A
:100298004E294F29552922088316031394008715E0
:1002A8005B29200822048316031394008711831204
:1002B800031323082104940008000A128A11EB2072
:1002C8000A128A11831203139F186B296C29792942
:1002D8000D3083120313A500FB30A400A40B722970
:1002E800A50B7229831203139F140A128A110C2872
:1002F800831203131E08F200F3017208F00073085A
:10030800F1000800F000700883120313930008003E
:08400000FF3FFF3FFF3FFF3FC0
:04400E00D620FF3F7A
:00000001FF
